{
  "_format": "hh-sol-artifact-1",
  "contractName": "MarkSheetContract",
  "sourceName": "contracts/Student.sol",
  "abi": [
    {
      "inputs": [
        {
          "components": [
            {
              "internalType": "string",
              "name": "name",
              "type": "string"
            },
            {
              "internalType": "string",
              "name": "rollno",
              "type": "string"
            },
            {
              "internalType": "string",
              "name": "fatherName",
              "type": "string"
            },
            {
              "internalType": "string",
              "name": "universityName",
              "type": "string"
            },
            {
              "internalType": "string",
              "name": "collegeName",
              "type": "string"
            },
            {
              "internalType": "string",
              "name": "degree",
              "type": "string"
            },
            {
              "internalType": "string",
              "name": "branch",
              "type": "string"
            },
            {
              "internalType": "string",
              "name": "status",
              "type": "string"
            }
          ],
          "internalType": "struct MarkSheetContract.Student",
          "name": "student",
          "type": "tuple"
        },
        {
          "internalType": "string",
          "name": "result",
          "type": "string"
        },
        {
          "internalType": "string",
          "name": "grade",
          "type": "string"
        },
        {
          "internalType": "uint256",
          "name": "semester",
          "type": "uint256"
        },
        {
          "internalType": "uint256",
          "name": "year",
          "type": "uint256"
        },
        {
          "components": [
            {
              "internalType": "string",
              "name": "code",
              "type": "string"
            },
            {
              "internalType": "string",
              "name": "name",
              "type": "string"
            },
            {
              "internalType": "string",
              "name": "grade",
              "type": "string"
            },
            {
              "internalType": "string",
              "name": "result",
              "type": "string"
            },
            {
              "internalType": "string",
              "name": "examType",
              "type": "string"
            }
          ],
          "internalType": "struct MarkSheetContract.Subject[]",
          "name": "_subjects",
          "type": "tuple[]"
        }
      ],
      "name": "addMarksheet",
      "outputs": [],
      "stateMutability": "nonpayable",
      "type": "function"
    },
    {
      "inputs": [
        {
          "internalType": "string",
          "name": "rollno",
          "type": "string"
        }
      ],
      "name": "getMarksheetByRollNo",
      "outputs": [
        {
          "components": [
            {
              "internalType": "string",
              "name": "name",
              "type": "string"
            },
            {
              "internalType": "string",
              "name": "rollno",
              "type": "string"
            },
            {
              "internalType": "string",
              "name": "fatherName",
              "type": "string"
            },
            {
              "internalType": "string",
              "name": "universityName",
              "type": "string"
            },
            {
              "internalType": "string",
              "name": "collegeName",
              "type": "string"
            },
            {
              "internalType": "string",
              "name": "degree",
              "type": "string"
            },
            {
              "internalType": "string",
              "name": "branch",
              "type": "string"
            },
            {
              "internalType": "string",
              "name": "status",
              "type": "string"
            }
          ],
          "internalType": "struct MarkSheetContract.Student",
          "name": "student",
          "type": "tuple"
        },
        {
          "components": [
            {
              "internalType": "string",
              "name": "code",
              "type": "string"
            },
            {
              "internalType": "string",
              "name": "name",
              "type": "string"
            },
            {
              "internalType": "string",
              "name": "grade",
              "type": "string"
            },
            {
              "internalType": "string",
              "name": "result",
              "type": "string"
            },
            {
              "internalType": "string",
              "name": "examType",
              "type": "string"
            }
          ],
          "internalType": "struct MarkSheetContract.Subject[][]",
          "name": "subjects",
          "type": "tuple[][]"
        },
        {
          "internalType": "uint256[]",
          "name": "semester",
          "type": "uint256[]"
        },
        {
          "internalType": "uint256[]",
          "name": "year",
          "type": "uint256[]"
        },
        {
          "internalType": "bytes32[]",
          "name": "hashes",
          "type": "bytes32[]"
        },
        {
          "internalType": "string[]",
          "name": "result",
          "type": "string[]"
        },
        {
          "internalType": "string[]",
          "name": "grade",
          "type": "string[]"
        },
        {
          "internalType": "uint256[]",
          "name": "timestamp",
          "type": "uint256[]"
        }
      ],
      "stateMutability": "view",
      "type": "function"
    },
    {
      "inputs": [
        {
          "internalType": "bytes32",
          "name": "hashValue",
          "type": "bytes32"
        }
      ],
      "name": "verifyMarksheet",
      "outputs": [
        {
          "internalType": "string",
          "name": "result",
          "type": "string"
        }
      ],
      "stateMutability": "view",
      "type": "function"
    }
  ],
  "bytecode": "0x608060405234801561001057600080fd5b506124fb806100206000396000f3fe608060405234801561001057600080fd5b50600436106100415760003560e01c80632cce29a714610046578063a55ebd801461007d578063caaeffdf146100ad575b600080fd5b610060600480360381019061005b919061131c565b6100c9565b60405161007498979695949392919061192d565b60405180910390f35b61009760048036038101906100929190611a0f565b610e48565b6040516100a49190611a86565b60405180910390f35b6100c760048036038101906100c29190611e86565b610f0a565b005b6100d161114e565b60608060608060608060606000805b60015481101561014c57600080600083815260200190815260200160002090508b805190602001208160050160010160405161011c9190612086565b604051809103902003610138578280610134906120cc565b9350505b508080610144906120cc565b9150506100e0565b508067ffffffffffffffff811115610167576101666111f1565b5b60405190808252806020026020018201604052801561019a57816020015b60608152602001906001900390816101855790505b5097508067ffffffffffffffff8111156101b7576101b66111f1565b5b6040519080825280602002602001820160405280156101e55781602001602082028036833780820191505090505b5095508067ffffffffffffffff811115610202576102016111f1565b5b6040519080825280602002602001820160405280156102305781602001602082028036833780820191505090505b5096508067ffffffffffffffff81111561024d5761024c6111f1565b5b60405190808252806020026020018201604052801561027b5781602001602082028036833780820191505090505b5094508067ffffffffffffffff811115610298576102976111f1565b5b6040519080825280602002602001820160405280156102cb57816020015b60608152602001906001900390816102b65790505b5093508067ffffffffffffffff8111156102e8576102e76111f1565b5b60405190808252806020026020018201604052801561031b57816020015b60608152602001906001900390816103065790505b5092508067ffffffffffffffff811115610338576103376111f1565b5b6040519080825280602002602001820160405280156103665781602001602082028036833780820191505090505b5091506000905060005b600154811015610e2f57600080600083815260200190815260200160002090508b80519060200120816005016001016040516103ac9190612086565b604051809103902003610e1b5780600f015467ffffffffffffffff8111156103d7576103d66111f1565b5b60405190808252806020026020018201604052801561041057816020015b6103fd611193565b8152602001906001900390816103f55790505b508a848151811061042457610423612114565b5b602002602001018190525060005b81600f01548110156107835781600e0160008281526020019081526020016000206040518060a001604052908160008201805461046e90611fb2565b80601f016020809104026020016040519081016040528092919081815260200182805461049a90611fb2565b80156104e75780601f106104bc576101008083540402835291602001916104e7565b820191906000526020600020905b8154815290600101906020018083116104ca57829003601f168201915b5050505050815260200160018201805461050090611fb2565b80601f016020809104026020016040519081016040528092919081815260200182805461052c90611fb2565b80156105795780601f1061054e57610100808354040283529160200191610579565b820191906000526020600020905b81548152906001019060200180831161055c57829003601f168201915b5050505050815260200160028201805461059290611fb2565b80601f01602080910402602001604051908101604052809291908181526020018280546105be90611fb2565b801561060b5780601f106105e05761010080835404028352916020019161060b565b820191906000526020600020905b8154815290600101906020018083116105ee57829003601f168201915b5050505050815260200160038201805461062490611fb2565b80601f016020809104026020016040519081016040528092919081815260200182805461065090611fb2565b801561069d5780601f106106725761010080835404028352916020019161069d565b820191906000526020600020905b81548152906001019060200180831161068057829003601f168201915b505050505081526020016004820180546106b690611fb2565b80601f01602080910402602001604051908101604052809291908181526020018280546106e290611fb2565b801561072f5780601f106107045761010080835404028352916020019161072f565b820191906000526020600020905b81548152906001019060200180831161071257829003601f168201915b5050505050815250508b858151811061074b5761074a612114565b5b6020026020010151828151811061076557610764612114565b5b6020026020010181905250808061077b906120cc565b915050610432565b5080600501604051806101000160405290816000820180546107a490611fb2565b80601f01602080910402602001604051908101604052809291908181526020018280546107d090611fb2565b801561081d5780601f106107f25761010080835404028352916020019161081d565b820191906000526020600020905b81548152906001019060200180831161080057829003601f168201915b5050505050815260200160018201805461083690611fb2565b80601f016020809104026020016040519081016040528092919081815260200182805461086290611fb2565b80156108af5780601f10610884576101008083540402835291602001916108af565b820191906000526020600020905b81548152906001019060200180831161089257829003601f168201915b505050505081526020016002820180546108c890611fb2565b80601f01602080910402602001604051908101604052809291908181526020018280546108f490611fb2565b80156109415780601f1061091657610100808354040283529160200191610941565b820191906000526020600020905b81548152906001019060200180831161092457829003601f168201915b5050505050815260200160038201805461095a90611fb2565b80601f016020809104026020016040519081016040528092919081815260200182805461098690611fb2565b80156109d35780601f106109a8576101008083540402835291602001916109d3565b820191906000526020600020905b8154815290600101906020018083116109b657829003601f168201915b505050505081526020016004820180546109ec90611fb2565b80601f0160208091040260200160405190810160405280929190818152602001828054610a1890611fb2565b8015610a655780601f10610a3a57610100808354040283529160200191610a65565b820191906000526020600020905b815481529060010190602001808311610a4857829003601f168201915b50505050508152602001600582018054610a7e90611fb2565b80601f0160208091040260200160405190810160405280929190818152602001828054610aaa90611fb2565b8015610af75780601f10610acc57610100808354040283529160200191610af7565b820191906000526020600020905b815481529060010190602001808311610ada57829003601f168201915b50505050508152602001600682018054610b1090611fb2565b80601f0160208091040260200160405190810160405280929190818152602001828054610b3c90611fb2565b8015610b895780601f10610b5e57610100808354040283529160200191610b89565b820191906000526020600020905b815481529060010190602001808311610b6c57829003601f168201915b50505050508152602001600782018054610ba290611fb2565b80601f0160208091040260200160405190810160405280929190818152602001828054610bce90611fb2565b8015610c1b5780601f10610bf057610100808354040283529160200191610c1b565b820191906000526020600020905b815481529060010190602001808311610bfe57829003601f168201915b5050505050815250509a508060020154888481518110610c3e57610c3d612114565b5b6020026020010181815250508060010154898481518110610c6257610c61612114565b5b60200260200101818152505080600d0154878481518110610c8657610c85612114565b5b602002602001018181525050806003018054610ca190611fb2565b80601f0160208091040260200160405190810160405280929190818152602001828054610ccd90611fb2565b8015610d1a5780601f10610cef57610100808354040283529160200191610d1a565b820191906000526020600020905b815481529060010190602001808311610cfd57829003601f168201915b5050505050868481518110610d3257610d31612114565b5b6020026020010181905250806004018054610d4c90611fb2565b80601f0160208091040260200160405190810160405280929190818152602001828054610d7890611fb2565b8015610dc55780601f10610d9a57610100808354040283529160200191610dc5565b820191906000526020600020905b815481529060010190602001808311610da857829003601f168201915b5050505050858481518110610ddd57610ddc612114565b5b60200260200101819052508060000154848481518110610e0057610dff612114565b5b6020026020010181815250508280610e17906120cc565b9350505b508080610e27906120cc565b915050610370565b5088888789985098509850985050919395975091939597565b606060005b600154811015610ecb57600080600083815260200190815260200160002090508381600d015403610eb7576040518060400160405280600881526020017f566572696669656400000000000000000000000000000000000000000000000081525092505050610f05565b508080610ec3906120cc565b915050610e4d565b506040518060400160405280601881526020017f4d61726b736865657420646f6573206e6f74206578697374000000000000000081525090505b919050565b600080600060016000815480929190610f22906120cc565b919050558152602001908152602001600020905083816001018190555082816002018190555086816005016000820151816000019081610f6291906122ef565b506020820151816001019081610f7891906122ef565b506040820151816002019081610f8e91906122ef565b506060820151816003019081610fa491906122ef565b506080820151816004019081610fba91906122ef565b5060a0820151816005019081610fd091906122ef565b5060c0820151816006019081610fe691906122ef565b5060e0820151816007019081610ffc91906122ef565b509050508481600401908161101191906122ef565b508581600301908161102391906122ef565b50428160000181905550600043428987878760405160200161104a96959493929190612456565b6040516020818303038152906040528051906020012090508082600d018190555060005b83518110156111435783818151811061108a57611089612114565b5b602002602001015183600e01600085600f0160008154809291906110ad906120cc565b91905055815260200190815260200160002060008201518160000190816110d491906122ef565b5060208201518160010190816110ea91906122ef565b50604082015181600201908161110091906122ef565b50606082015181600301908161111691906122ef565b50608082015181600401908161112c91906122ef565b50905050808061113b906120cc565b91505061106e565b505050505050505050565b60405180610100016040528060608152602001606081526020016060815260200160608152602001606081526020016060815260200160608152602001606081525090565b6040518060a0016040528060608152602001606081526020016060815260200160608152602001606081525090565b6000604051905090565b600080fd5b600080fd5b600080fd5b600080fd5b6000601f19601f8301169050919050565b7f4e487b7100000000000000000000000000000000000000000000000000000000600052604160045260246000fd5b611229826111e0565b810181811067ffffffffffffffff82111715611248576112476111f1565b5b80604052505050565b600061125b6111c2565b90506112678282611220565b919050565b600067ffffffffffffffff821115611287576112866111f1565b5b611290826111e0565b9050602081019050919050565b82818337600083830152505050565b60006112bf6112ba8461126c565b611251565b9050828152602081018484840111156112db576112da6111db565b5b6112e684828561129d565b509392505050565b600082601f830112611303576113026111d6565b5b81356113138482602086016112ac565b91505092915050565b600060208284031215611332576113316111cc565b5b600082013567ffffffffffffffff8111156113505761134f6111d1565b5b61135c848285016112ee565b91505092915050565b600081519050919050565b600082825260208201905092915050565b60005b8381101561139f578082015181840152602081019050611384565b60008484015250505050565b60006113b682611365565b6113c08185611370565b93506113d0818560208601611381565b6113d9816111e0565b840191505092915050565b600061010083016000830151848203600086015261140282826113ab565b9150506020830151848203602086015261141c82826113ab565b9150506040830151848203604086015261143682826113ab565b9150506060830151848203606086015261145082826113ab565b9150506080830151848203608086015261146a82826113ab565b91505060a083015184820360a086015261148482826113ab565b91505060c083015184820360c086015261149e82826113ab565b91505060e083015184820360e08601526114b882826113ab565b9150508091505092915050565b600081519050919050565b600082825260208201905092915050565b6000819050602082019050919050565b600081519050919050565b600082825260208201905092915050565b6000819050602082019050919050565b600060a083016000830151848203600086015261153a82826113ab565b9150506020830151848203602086015261155482826113ab565b9150506040830151848203604086015261156e82826113ab565b9150506060830151848203606086015261158882826113ab565b915050608083015184820360808601526115a282826113ab565b9150508091505092915050565b60006115bb838361151d565b905092915050565b6000602082019050919050565b60006115db826114f1565b6115e581856114fc565b9350836020820285016115f78561150d565b8060005b85811015611633578484038952815161161485826115af565b945061161f836115c3565b925060208a019950506001810190506115fb565b50829750879550505050505092915050565b600061165183836115d0565b905092915050565b6000602082019050919050565b6000611671826114c5565b61167b81856114d0565b93508360208202850161168d856114e1565b8060005b858110156116c957848403895281516116aa8582611645565b94506116b583611659565b925060208a01995050600181019050611691565b50829750879550505050505092915050565b600081519050919050565b600082825260208201905092915050565b6000819050602082019050919050565b6000819050919050565b61171a81611707565b82525050565b600061172c8383611711565b60208301905092915050565b6000602082019050919050565b6000611750826116db565b61175a81856116e6565b9350611765836116f7565b8060005b8381101561179657815161177d8882611720565b975061178883611738565b925050600181019050611769565b5085935050505092915050565b600081519050919050565b600082825260208201905092915050565b6000819050602082019050919050565b6000819050919050565b6117e2816117cf565b82525050565b60006117f483836117d9565b60208301905092915050565b6000602082019050919050565b6000611818826117a3565b61182281856117ae565b935061182d836117bf565b8060005b8381101561185e57815161184588826117e8565b975061185083611800565b925050600181019050611831565b5085935050505092915050565b600081519050919050565b600082825260208201905092915050565b6000819050602082019050919050565b60006118a383836113ab565b905092915050565b6000602082019050919050565b60006118c38261186b565b6118cd8185611876565b9350836020820285016118df85611887565b8060005b8581101561191b57848403895281516118fc8582611897565b9450611907836118ab565b925060208a019950506001810190506118e3565b50829750879550505050505092915050565b6000610100820190508181036000830152611948818b6113e4565b9050818103602083015261195c818a611666565b905081810360408301526119708189611745565b905081810360608301526119848188611745565b90508181036080830152611998818761180d565b905081810360a08301526119ac81866118b8565b905081810360c08301526119c081856118b8565b905081810360e08301526119d48184611745565b90509998505050505050505050565b6119ec816117cf565b81146119f757600080fd5b50565b600081359050611a09816119e3565b92915050565b600060208284031215611a2557611a246111cc565b5b6000611a33848285016119fa565b91505092915050565b600082825260208201905092915050565b6000611a5882611365565b611a628185611a3c565b9350611a72818560208601611381565b611a7b816111e0565b840191505092915050565b60006020820190508181036000830152611aa08184611a4d565b905092915050565b600080fd5b600080fd5b60006101008284031215611ac957611ac8611aa8565b5b611ad4610100611251565b9050600082013567ffffffffffffffff811115611af457611af3611aad565b5b611b00848285016112ee565b600083015250602082013567ffffffffffffffff811115611b2457611b23611aad565b5b611b30848285016112ee565b602083015250604082013567ffffffffffffffff811115611b5457611b53611aad565b5b611b60848285016112ee565b604083015250606082013567ffffffffffffffff811115611b8457611b83611aad565b5b611b90848285016112ee565b606083015250608082013567ffffffffffffffff811115611bb457611bb3611aad565b5b611bc0848285016112ee565b60808301525060a082013567ffffffffffffffff811115611be457611be3611aad565b5b611bf0848285016112ee565b60a08301525060c082013567ffffffffffffffff811115611c1457611c13611aad565b5b611c20848285016112ee565b60c08301525060e082013567ffffffffffffffff811115611c4457611c43611aad565b5b611c50848285016112ee565b60e08301525092915050565b611c6581611707565b8114611c7057600080fd5b50565b600081359050611c8281611c5c565b92915050565b600067ffffffffffffffff821115611ca357611ca26111f1565b5b602082029050602081019050919050565b600080fd5b600060a08284031215611ccf57611cce611aa8565b5b611cd960a0611251565b9050600082013567ffffffffffffffff811115611cf957611cf8611aad565b5b611d05848285016112ee565b600083015250602082013567ffffffffffffffff811115611d2957611d28611aad565b5b611d35848285016112ee565b602083015250604082013567ffffffffffffffff811115611d5957611d58611aad565b5b611d65848285016112ee565b604083015250606082013567ffffffffffffffff811115611d8957611d88611aad565b5b611d95848285016112ee565b606083015250608082013567ffffffffffffffff811115611db957611db8611aad565b5b611dc5848285016112ee565b60808301525092915050565b6000611de4611ddf84611c88565b611251565b90508083825260208201905060208402830185811115611e0757611e06611cb4565b5b835b81811015611e4e57803567ffffffffffffffff811115611e2c57611e2b6111d6565b5b808601611e398982611cb9565b85526020850194505050602081019050611e09565b5050509392505050565b600082601f830112611e6d57611e6c6111d6565b5b8135611e7d848260208601611dd1565b91505092915050565b60008060008060008060c08789031215611ea357611ea26111cc565b5b600087013567ffffffffffffffff811115611ec157611ec06111d1565b5b611ecd89828a01611ab2565b965050602087013567ffffffffffffffff811115611eee57611eed6111d1565b5b611efa89828a016112ee565b955050604087013567ffffffffffffffff811115611f1b57611f1a6111d1565b5b611f2789828a016112ee565b9450506060611f3889828a01611c73565b9350506080611f4989828a01611c73565b92505060a087013567ffffffffffffffff811115611f6a57611f696111d1565b5b611f7689828a01611e58565b9150509295509295509295565b7f4e487b7100000000000000000000000000000000000000000000000000000000600052602260045260246000fd5b60006002820490506001821680611fca57607f821691505b602082108103611fdd57611fdc611f83565b5b50919050565b600081905092915050565b60008190508160005260206000209050919050565b6000815461201081611fb2565b61201a8186611fe3565b94506001821660008114612035576001811461204a5761207d565b60ff198316865281151582028601935061207d565b61205385611fee565b60005b8381101561207557815481890152600182019150602081019050612056565b838801955050505b50505092915050565b60006120928284612003565b915081905092915050565b7f4e487b7100000000000000000000000000000000000000000000000000000000600052601160045260246000fd5b60006120d782611707565b91507fffffffffffffffffffffffffffffffffffffffffffffffffffffffffffffffff82036121095761210861209d565b5b600182019050919050565b7f4e487b7100000000000000000000000000000000000000000000000000000000600052603260045260246000fd5b60008190508160005260206000209050919050565b60006020601f8301049050919050565b600082821b905092915050565b6000600883026121a57fffffffffffffffffffffffffffffffffffffffffffffffffffffffffffffffff82612168565b6121af8683612168565b95508019841693508086168417925050509392505050565b6000819050919050565b60006121ec6121e76121e284611707565b6121c7565b611707565b9050919050565b6000819050919050565b612206836121d1565b61221a612212826121f3565b848454612175565b825550505050565b600090565b61222f612222565b61223a8184846121fd565b505050565b5b8181101561225e57612253600082612227565b600181019050612240565b5050565b601f8211156122a35761227481612143565b61227d84612158565b8101602085101561228c578190505b6122a061229885612158565b83018261223f565b50505b505050565b600082821c905092915050565b60006122c6600019846008026122a8565b1980831691505092915050565b60006122df83836122b5565b9150826002028217905092915050565b6122f882611365565b67ffffffffffffffff811115612311576123106111f1565b5b61231b8254611fb2565b612326828285612262565b600060209050601f8311600181146123595760008415612347578287015190505b61235185826122d3565b8655506123b9565b601f19841661236786612143565b60005b8281101561238f5784890151825560018201915060208501945060208101905061236a565b868310156123ac57848901516123a8601f8916826122b5565b8355505b6001600288020188555050505b505050505050565b6123ca81611707565b82525050565b600082825260208201905092915050565b60006123ec826114f1565b6123f681856123d0565b9350836020820285016124088561150d565b8060005b85811015612444578484038952815161242585826115af565b9450612430836115c3565b925060208a0199505060018101905061240c565b50829750879550505050505092915050565b600060c08201905061246b60008301896123c1565b61247860208301886123c1565b818103604083015261248a81876113e4565b905061249960608301866123c1565b6124a660808301856123c1565b81810360a08301526124b881846123e1565b905097965050505050505056fea264697066735822122057c0547f43937bceb4f43e9d98c3a284db01d8c1af5be60df42be4e3bf24309164736f6c63430008120033",
  "linkReferences": {},
  "deployedLinkReferences": {}
}